:020000020000FC
:040000000C94F1016A
:100200004F938F939F930F93F89445B14C7F45B9CB
:1002100044B1436044B94BB14F704BB94AB1406FE0
:100220004AB9789490E084E60E94D00191E48FEF7F
:100230000E94D001F8944BB14F7040634BB9789451
:100240000E94720191E18FEF0E94D001F8944BB1AE
:100250004F7040634BB978940E94720190E088E738
:100260000E94D001F8944BB14F7040634BB9789421
:100270000E947201F8944BB14F7040624BB9789470
:100280000E94720108E20E9480010CE00E9480013D
:1002900006E00E9480010E94BE010F919F918F9104
:1002A0004F9108950E9457010E94BD0108950F9338
:1002B000012F0E946C010F9108958F939F930F93CC
:1002C0000F7300640E94800190E088E20E94D001D8
:1002D0000F919F918F9108950F9300680E94800164
:1002E0000F9108958F939F93299A90E084E10E9443
:1002F000D001299884E10E94D0019F918F910895A7
:100300000F931F934F93102F107F000F000F000FBC
:10031000000F2898F8944BB14F70412B4BB978944B
:100320000E947201F8944BB14F70402B4BB97894F6
:100330000E9472014F911F910F9108950F931F9387
:100340004F93102F107F000F000F000F000F289AFF
:10035000F8944BB14F70412B4BB978940E947201C5
:10036000F8944BB14F70402B4BB978940E947201B6
:1003700028984F911F910F910895E0CF9F938F93ED
:100380000F9301E00E94800197E08FEF0E94D0015F
:100390000F918F919F9108952A9A08952A98089510
:1003A0004F9344E04A95F1F70197D9F74F9108959B
:1003B00040747576756D626120776173206865722F
:1003C000652C20646F6E27742074656C6C20616EE0
:1003D000796F6E6520706C65617365206C6F6C2041
:1003E00000000E9400010E94650261E0603031F16E
:1003F000AFE40E947A025B2FB0E060E00E944B0203
:1004000063950E9482020E9482020E9482020E94E0
:100410007102603228F0B395B51710F00C941402F5
:100420000E94BE010C94FE010E94BE010E94820245
:100430000E9482020E9482020C941E02A0E0B0E0A0
:100440000E947A0260E00E944B020E9482020E9497
:1004500082020E9482026395B03021F40E946802F9
:100460000C943302BA95A03521F4B03011F40C94F9
:100470003D020E94BE010C9423020E94BE010E9414
:1004800082020E9482020E9482020E9482020C94D6
:10049000F8010C9449021A2F0E94650270E07B1744
:1004A00021F0059173957B17E1F70591003011F468
:1004B0000C9464020E9452011F3431F01F3009F481
:1004C0001FE313950C9455020895E0EBF3E00895B3
:1004D000AF3011F4A0E40895A03509F40895A39570
:1004E0000895A03411F4AFE00895A03009F4089500
:1004F000AA950895B0E00E9465020591B395003079
:10050000E1F7089528E4C4E6D8E7DA95F1F7CA954B
:08051000D9F72A95C1F70895FF
:00000001FF
