:020000020000FC
:040000000C94150245
:100200004F938F939F930F93F89445B14C7F45B9CB
:1002100044B1436044B94BB14F704BB94AB1406FE0
:100220004AB9789490E084E60E94D00191E48FEF7F
:100230000E94D001F8944BB14F7040634BB9789451
:100240000E94720191E18FEF0E94D001F8944BB1AE
:100250004F7040634BB978940E94720190E088E738
:100260000E94D001F8944BB14F7040634BB9789421
:100270000E947201F8944BB14F7040624BB9789470
:100280000E94720108E20E9480010CE00E9480013D
:1002900006E00E9480010E94BE010F919F918F9104
:1002A0004F9108950E9457010E94BD0108950F9338
:1002B000012F0E946C010F9108958F939F930F93CC
:1002C0000F7300640E94800190E088E20E94D001D8
:1002D0000F919F918F9108950F9300680E94800164
:1002E0000F9108958F939F93299A90E084E10E9443
:1002F000D001299884E10E94D0019F918F910895A7
:100300000F931F934F93102F107F000F000F000FBC
:10031000000F2898F8944BB14F70412B4BB978944B
:100320000E947201F8944BB14F70402B4BB97894F6
:100330000E9472014F911F910F9108950F931F9387
:100340004F93102F107F000F000F000F000F289AFF
:10035000F8944BB14F70412B4BB978940E947201C5
:10036000F8944BB14F70402B4BB978940E947201B6
:1003700028984F911F910F910895E0CF9F938F93ED
:100380000F9301E00E94800197E08FEF0E94D0015F
:100390000F918F919F9108952A9A08952A98089510
:1003A0004F9344E04A95F1F70197D9F74F9108959B
:1003B00048656C6C6F2074686973206973206120D4
:1003C0007265616C6C79206C6F6E672074657874EF
:1003D0002064656D6F6E7374726174696F6E206FE7
:1003E0006620536C6964696E675465787428746D0F
:1003F00029207461736B206D616465206279206EC1
:100400006F206F746865722074686174206D652157
:10041000203A3320416C736F207769746820626FD3
:100420006E7573203A30200010000E9400010E9477
:100430007F0261E0603011F1AFE40E9494025B2F13
:10044000B0E060E00E94650263950E949C020E94F9
:100450009C020E94BE010E948B02603228F0B3957C
:10046000B51710F00C9436020C9422020E94BE01C3
:100470000E949C020E949C020C941C02A0E0B0E02E
:100480000E94940260E00E9465020E949C020E9409
:100490009C020E94BE016395B03021F40E9482024A
:1004A0000C945302BA95AF3421F4B03011F40C948B
:1004B0005B020C9443020E94BE010E949C020E94B7
:1004C0009C020C943E020C9463021A2F0E947F023D
:1004D00070E07B1721F0059173957B17E1F705918B
:1004E000003011F40C947E020E9452011F3431F04E
:1004F0001F3009F41FE313950C946F020895E0EB8D
:10050000F3E00895AF3011F4A0E40895AF3409F496
:100510000895A3950895A03411F4AFE00895A03094
:1005200009F40895AA950895B0E00E947F0205910C
:10053000B3950030E1F7089520E1C0E1D0E1DA950C
:0C054000F1F7CA95D9F72A95C1F7089584
:00000001FF
